{
  "_format": "hh-sol-artifact-1",
  "contractName": "EtherealCanvasNFT",
  "sourceName": "contracts/EtherealCanvasNFT.sol",
  "abi": [
    {
      "inputs": [],
      "stateMutability": "nonpayable",
      "type": "constructor"
    },
    {
      "anonymous": false,
      "inputs": [
        {
          "indexed": true,
          "internalType": "address",
          "name": "owner",
          "type": "address"
        },
        {
          "indexed": true,
          "internalType": "address",
          "name": "approved",
          "type": "address"
        },
        {
          "indexed": true,
          "internalType": "uint256",
          "name": "tokenId",
          "type": "uint256"
        }
      ],
      "name": "Approval",
      "type": "event"
    },
    {
      "anonymous": false,
      "inputs": [
        {
          "indexed": true,
          "internalType": "address",
          "name": "owner",
          "type": "address"
        },
        {
          "indexed": true,
          "internalType": "address",
          "name": "operator",
          "type": "address"
        },
        {
          "indexed": false,
          "internalType": "bool",
          "name": "approved",
          "type": "bool"
        }
      ],
      "name": "ApprovalForAll",
      "type": "event"
    },
    {
      "anonymous": false,
      "inputs": [
        {
          "indexed": true,
          "internalType": "uint256",
          "name": "tokenId",
          "type": "uint256"
        },
        {
          "indexed": true,
          "internalType": "address",
          "name": "artist",
          "type": "address"
        },
        {
          "indexed": false,
          "internalType": "string",
          "name": "tokenURI",
          "type": "string"
        },
        {
          "indexed": false,
          "internalType": "string",
          "name": "prompt",
          "type": "string"
        },
        {
          "indexed": false,
          "internalType": "uint256",
          "name": "timestamp",
          "type": "uint256"
        }
      ],
      "name": "ArtworkMinted",
      "type": "event"
    },
    {
      "anonymous": false,
      "inputs": [
        {
          "indexed": false,
          "internalType": "uint256",
          "name": "_fromTokenId",
          "type": "uint256"
        },
        {
          "indexed": false,
          "internalType": "uint256",
          "name": "_toTokenId",
          "type": "uint256"
        }
      ],
      "name": "BatchMetadataUpdate",
      "type": "event"
    },
    {
      "anonymous": false,
      "inputs": [
        {
          "indexed": false,
          "internalType": "uint256",
          "name": "_tokenId",
          "type": "uint256"
        }
      ],
      "name": "MetadataUpdate",
      "type": "event"
    },
    {
      "anonymous": false,
      "inputs": [
        {
          "indexed": false,
          "internalType": "uint256",
          "name": "oldFee",
          "type": "uint256"
        },
        {
          "indexed": false,
          "internalType": "uint256",
          "name": "newFee",
          "type": "uint256"
        }
      ],
      "name": "MintingFeeUpdated",
      "type": "event"
    },
    {
      "anonymous": false,
      "inputs": [
        {
          "indexed": true,
          "internalType": "address",
          "name": "previousOwner",
          "type": "address"
        },
        {
          "indexed": true,
          "internalType": "address",
          "name": "newOwner",
          "type": "address"
        }
      ],
      "name": "OwnershipTransferred",
      "type": "event"
    },
    {
      "anonymous": false,
      "inputs": [
        {
          "indexed": true,
          "internalType": "address",
          "name": "from",
          "type": "address"
        },
        {
          "indexed": true,
          "internalType": "address",
          "name": "to",
          "type": "address"
        },
        {
          "indexed": true,
          "internalType": "uint256",
          "name": "tokenId",
          "type": "uint256"
        }
      ],
      "name": "Transfer",
      "type": "event"
    },
    {
      "inputs": [
        {
          "internalType": "address",
          "name": "to",
          "type": "address"
        },
        {
          "internalType": "uint256",
          "name": "tokenId",
          "type": "uint256"
        }
      ],
      "name": "approve",
      "outputs": [],
      "stateMutability": "nonpayable",
      "type": "function"
    },
    {
      "inputs": [
        {
          "internalType": "address",
          "name": "owner",
          "type": "address"
        }
      ],
      "name": "balanceOf",
      "outputs": [
        {
          "internalType": "uint256",
          "name": "",
          "type": "uint256"
        }
      ],
      "stateMutability": "view",
      "type": "function"
    },
    {
      "inputs": [
        {
          "internalType": "uint256",
          "name": "tokenId",
          "type": "uint256"
        }
      ],
      "name": "getApproved",
      "outputs": [
        {
          "internalType": "address",
          "name": "",
          "type": "address"
        }
      ],
      "stateMutability": "view",
      "type": "function"
    },
    {
      "inputs": [],
      "name": "getBalance",
      "outputs": [
        {
          "internalType": "uint256",
          "name": "",
          "type": "uint256"
        }
      ],
      "stateMutability": "view",
      "type": "function"
    },
    {
      "inputs": [],
      "name": "getCurrentTokenId",
      "outputs": [
        {
          "internalType": "uint256",
          "name": "",
          "type": "uint256"
        }
      ],
      "stateMutability": "view",
      "type": "function"
    },
    {
      "inputs": [
        {
          "internalType": "uint256",
          "name": "tokenId",
          "type": "uint256"
        }
      ],
      "name": "getTokenPrompt",
      "outputs": [
        {
          "internalType": "string",
          "name": "",
          "type": "string"
        }
      ],
      "stateMutability": "view",
      "type": "function"
    },
    {
      "inputs": [
        {
          "internalType": "uint256",
          "name": "tokenId",
          "type": "uint256"
        }
      ],
      "name": "getTokenTimestamp",
      "outputs": [
        {
          "internalType": "uint256",
          "name": "",
          "type": "uint256"
        }
      ],
      "stateMutability": "view",
      "type": "function"
    },
    {
      "inputs": [
        {
          "internalType": "address",
          "name": "owner",
          "type": "address"
        },
        {
          "internalType": "address",
          "name": "operator",
          "type": "address"
        }
      ],
      "name": "isApprovedForAll",
      "outputs": [
        {
          "internalType": "bool",
          "name": "",
          "type": "bool"
        }
      ],
      "stateMutability": "view",
      "type": "function"
    },
    {
      "inputs": [
        {
          "internalType": "address",
          "name": "to",
          "type": "address"
        },
        {
          "internalType": "string",
          "name": "tokenURI",
          "type": "string"
        },
        {
          "internalType": "string",
          "name": "prompt",
          "type": "string"
        }
      ],
      "name": "mintArtwork",
      "outputs": [
        {
          "internalType": "uint256",
          "name": "",
          "type": "uint256"
        }
      ],
      "stateMutability": "payable",
      "type": "function"
    },
    {
      "inputs": [],
      "name": "mintingFee",
      "outputs": [
        {
          "internalType": "uint256",
          "name": "",
          "type": "uint256"
        }
      ],
      "stateMutability": "view",
      "type": "function"
    },
    {
      "inputs": [],
      "name": "name",
      "outputs": [
        {
          "internalType": "string",
          "name": "",
          "type": "string"
        }
      ],
      "stateMutability": "view",
      "type": "function"
    },
    {
      "inputs": [],
      "name": "owner",
      "outputs": [
        {
          "internalType": "address",
          "name": "",
          "type": "address"
        }
      ],
      "stateMutability": "view",
      "type": "function"
    },
    {
      "inputs": [
        {
          "internalType": "uint256",
          "name": "tokenId",
          "type": "uint256"
        }
      ],
      "name": "ownerOf",
      "outputs": [
        {
          "internalType": "address",
          "name": "",
          "type": "address"
        }
      ],
      "stateMutability": "view",
      "type": "function"
    },
    {
      "inputs": [],
      "name": "renounceOwnership",
      "outputs": [],
      "stateMutability": "nonpayable",
      "type": "function"
    },
    {
      "inputs": [
        {
          "internalType": "address",
          "name": "from",
          "type": "address"
        },
        {
          "internalType": "address",
          "name": "to",
          "type": "address"
        },
        {
          "internalType": "uint256",
          "name": "tokenId",
          "type": "uint256"
        }
      ],
      "name": "safeTransferFrom",
      "outputs": [],
      "stateMutability": "nonpayable",
      "type": "function"
    },
    {
      "inputs": [
        {
          "internalType": "address",
          "name": "from",
          "type": "address"
        },
        {
          "internalType": "address",
          "name": "to",
          "type": "address"
        },
        {
          "internalType": "uint256",
          "name": "tokenId",
          "type": "uint256"
        },
        {
          "internalType": "bytes",
          "name": "data",
          "type": "bytes"
        }
      ],
      "name": "safeTransferFrom",
      "outputs": [],
      "stateMutability": "nonpayable",
      "type": "function"
    },
    {
      "inputs": [
        {
          "internalType": "address",
          "name": "operator",
          "type": "address"
        },
        {
          "internalType": "bool",
          "name": "approved",
          "type": "bool"
        }
      ],
      "name": "setApprovalForAll",
      "outputs": [],
      "stateMutability": "nonpayable",
      "type": "function"
    },
    {
      "inputs": [
        {
          "internalType": "uint256",
          "name": "newFee",
          "type": "uint256"
        }
      ],
      "name": "setMintingFee",
      "outputs": [],
      "stateMutability": "nonpayable",
      "type": "function"
    },
    {
      "inputs": [
        {
          "internalType": "bytes4",
          "name": "interfaceId",
          "type": "bytes4"
        }
      ],
      "name": "supportsInterface",
      "outputs": [
        {
          "internalType": "bool",
          "name": "",
          "type": "bool"
        }
      ],
      "stateMutability": "view",
      "type": "function"
    },
    {
      "inputs": [],
      "name": "symbol",
      "outputs": [
        {
          "internalType": "string",
          "name": "",
          "type": "string"
        }
      ],
      "stateMutability": "view",
      "type": "function"
    },
    {
      "inputs": [
        {
          "internalType": "uint256",
          "name": "tokenId",
          "type": "uint256"
        }
      ],
      "name": "tokenURI",
      "outputs": [
        {
          "internalType": "string",
          "name": "",
          "type": "string"
        }
      ],
      "stateMutability": "view",
      "type": "function"
    },
    {
      "inputs": [
        {
          "internalType": "address",
          "name": "from",
          "type": "address"
        },
        {
          "internalType": "address",
          "name": "to",
          "type": "address"
        },
        {
          "internalType": "uint256",
          "name": "tokenId",
          "type": "uint256"
        }
      ],
      "name": "transferFrom",
      "outputs": [],
      "stateMutability": "nonpayable",
      "type": "function"
    },
    {
      "inputs": [
        {
          "internalType": "address",
          "name": "newOwner",
          "type": "address"
        }
      ],
      "name": "transferOwnership",
      "outputs": [],
      "stateMutability": "nonpayable",
      "type": "function"
    },
    {
      "inputs": [],
      "name": "withdraw",
      "outputs": [],
      "stateMutability": "nonpayable",
      "type": "function"
    }
  ],
  "bytecode": "0x608060405266038d7ea4c68000600b553480156200001c57600080fd5b506040518060400160405280600f81526020016e457468657265616c2043616e76617360881b81525060405180604001604052806008815260200167115512115491505360c21b8152508160009081620000779190620001a4565b506001620000868282620001a4565b505050620000a36200009d620000a960201b60201c565b620000ad565b62000270565b3390565b600780546001600160a01b038381166001600160a01b0319831681179093556040519116919082907f8be0079c531659141344cd1fd0a4f28419497f9722a3daafe3b4186f6b6457e090600090a35050565b634e487b7160e01b600052604160045260246000fd5b600181811c908216806200012a57607f821691505b6020821081036200014b57634e487b7160e01b600052602260045260246000fd5b50919050565b601f8211156200019f57600081815260208120601f850160051c810160208610156200017a5750805b601f850160051c820191505b818110156200019b5782815560010162000186565b5050505b505050565b81516001600160401b03811115620001c057620001c0620000ff565b620001d881620001d1845462000115565b8462000151565b602080601f831160018114620002105760008415620001f75750858301515b600019600386901b1c1916600185901b1785556200019b565b600085815260208120601f198616915b82811015620002415788860151825594840194600190910190840162000220565b5085821015620002605787850151600019600388901b60f8161c191681555b5050505050600190811b01905550565b611e4f80620002806000396000f3fe60806040526004361061014b5760003560e01c80636352211e116100b6578063a22cb4651161006f578063a22cb46514610379578063b88d4fde14610399578063c547c6fc146103b9578063c87b56dd146103d9578063e985e9c5146103f9578063f2fde38b1461044257600080fd5b80636352211e146102de57806370a08231146102fe578063715018a61461031e5780638da5cb5b146103335780638dc2703a1461035157806395d89b411461036457600080fd5b8063238a470911610108578063238a47091461023e57806323b872dd1461025e5780633ccfd60b1461027e57806342842e0e1461029357806356189236146102b35780635a64ad95146102c857600080fd5b806301ffc9a71461015057806306fdde0314610185578063081812fc146101a7578063095ea7b3146101df57806312065fe01461020157806321a16b0c1461021e575b600080fd5b34801561015c57600080fd5b5061017061016b3660046117ed565b610462565b60405190151581526020015b60405180910390f35b34801561019157600080fd5b5061019a610473565b60405161017c919061185a565b3480156101b357600080fd5b506101c76101c236600461186d565b610505565b6040516001600160a01b03909116815260200161017c565b3480156101eb57600080fd5b506101ff6101fa3660046118a2565b61052c565b005b34801561020d57600080fd5b50475b60405190815260200161017c565b34801561022a57600080fd5b5061021061023936600461186d565b610646565b34801561024a57600080fd5b506101ff61025936600461186d565b6106a7565b34801561026a57600080fd5b506101ff6102793660046118cc565b6106f5565b34801561028a57600080fd5b506101ff610726565b34801561029f57600080fd5b506101ff6102ae3660046118cc565b61081f565b3480156102bf57600080fd5b5061021061083a565b3480156102d457600080fd5b50610210600b5481565b3480156102ea57600080fd5b506101c76102f936600461186d565b61084a565b34801561030a57600080fd5b50610210610319366004611908565b6108aa565b34801561032a57600080fd5b506101ff610930565b34801561033f57600080fd5b506007546001600160a01b03166101c7565b61021061035f3660046119cf565b610944565b34801561037057600080fd5b5061019a610ade565b34801561038557600080fd5b506101ff610394366004611a43565b610aed565b3480156103a557600080fd5b506101ff6103b4366004611a7f565b610af8565b3480156103c557600080fd5b5061019a6103d436600461186d565b610b30565b3480156103e557600080fd5b5061019a6103f436600461186d565b610c1c565b34801561040557600080fd5b50610170610414366004611afb565b6001600160a01b03918216600090815260056020908152604080832093909416825291909152205460ff1690565b34801561044e57600080fd5b506101ff61045d366004611908565b610c27565b600061046d82610ca0565b92915050565b60606000805461048290611b2e565b80601f01602080910402602001604051908101604052809291908181526020018280546104ae90611b2e565b80156104fb5780601f106104d0576101008083540402835291602001916104fb565b820191906000526020600020905b8154815290600101906020018083116104de57829003601f168201915b5050505050905090565b600061051082610cc5565b506000908152600460205260409020546001600160a01b031690565b60006105378261084a565b9050806001600160a01b0316836001600160a01b0316036105a95760405162461bcd60e51b815260206004820152602160248201527f4552433732313a20617070726f76616c20746f2063757272656e74206f776e656044820152603960f91b60648201526084015b60405180910390fd5b336001600160a01b03821614806105c557506105c58133610414565b6106375760405162461bcd60e51b815260206004820152603d60248201527f4552433732313a20617070726f76652063616c6c6572206973206e6f7420746f60448201527f6b656e206f776e6572206f7220617070726f76656420666f7220616c6c00000060648201526084016105a0565b6106418383610d15565b505050565b600061065182610d83565b6106945760405162461bcd60e51b8152602060048201526014602482015273151bdad95b88191bd95cc81b9bdd08195e1a5cdd60621b60448201526064016105a0565b506000908152600a602052604090205490565b6106af610da0565b600b80549082905560408051828152602081018490527fc24d648b8b29d6566f302551df9152ced5a44785e31f38d1d047c8168dd3451991015b60405180910390a15050565b6106ff3382610dfa565b61071b5760405162461bcd60e51b81526004016105a090611b68565b610641838383610e79565b61072e610da0565b47806107735760405162461bcd60e51b81526020600482015260146024820152734e6f2066756e647320746f20776974686472617760601b60448201526064016105a0565b60006107876007546001600160a01b031690565b6001600160a01b03168260405160006040518083038185875af1925050503d80600081146107d1576040519150601f19603f3d011682016040523d82523d6000602084013e6107d6565b606091505b505090508061081b5760405162461bcd60e51b815260206004820152601160248201527015da5d1a191c985dd85b0819985a5b1959607a1b60448201526064016105a0565b5050565b61064183838360405180602001604052806000815250610af8565b600061084560085490565b905090565b6000818152600260205260408120546001600160a01b03168061046d5760405162461bcd60e51b8152602060048201526018602482015277115490cdcc8c4e881a5b9d985b1a59081d1bdad95b88125160421b60448201526064016105a0565b60006001600160a01b0382166109145760405162461bcd60e51b815260206004820152602960248201527f4552433732313a2061646472657373207a65726f206973206e6f7420612076616044820152683634b21037bbb732b960b91b60648201526084016105a0565b506001600160a01b031660009081526003602052604090205490565b610938610da0565b6109426000610fdd565b565b6000600b543410156109985760405162461bcd60e51b815260206004820152601860248201527f496e73756666696369656e74206d696e74696e6720666565000000000000000060448201526064016105a0565b60008351116109e95760405162461bcd60e51b815260206004820152601960248201527f546f6b656e205552492063616e6e6f7420626520656d7074790000000000000060448201526064016105a0565b6000825111610a335760405162461bcd60e51b815260206004820152601660248201527550726f6d70742063616e6e6f7420626520656d70747960501b60448201526064016105a0565b6000610a3e60085490565b9050610a4e600880546001019055565b610a58858261102f565b610a628185611049565b6000818152600960205260409020610a7a8482611c03565b506000818152600a602052604090819020429081905590516001600160a01b0387169183917fe748e97f48f7a93006e34619e416f1c489138736c4213d6d03ab0c0f572cc6fe91610ace9189918991611cc3565b60405180910390a3949350505050565b60606001805461048290611b2e565b61081b3383836110fe565b610b023383610dfa565b610b1e5760405162461bcd60e51b81526004016105a090611b68565b610b2a848484846111cc565b50505050565b6060610b3b82610d83565b610b7e5760405162461bcd60e51b8152602060048201526014602482015273151bdad95b88191bd95cc81b9bdd08195e1a5cdd60621b60448201526064016105a0565b60008281526009602052604090208054610b9790611b2e565b80601f0160208091040260200160405190810160405280929190818152602001828054610bc390611b2e565b8015610c105780601f10610be557610100808354040283529160200191610c10565b820191906000526020600020905b815481529060010190602001808311610bf357829003601f168201915b50505050509050919050565b606061046d826111ff565b610c2f610da0565b6001600160a01b038116610c945760405162461bcd60e51b815260206004820152602660248201527f4f776e61626c653a206e6577206f776e657220697320746865207a65726f206160448201526564647265737360d01b60648201526084016105a0565b610c9d81610fdd565b50565b60006001600160e01b03198216632483248360e11b148061046d575061046d82611307565b610cce81610d83565b610c9d5760405162461bcd60e51b8152602060048201526018602482015277115490cdcc8c4e881a5b9d985b1a59081d1bdad95b88125160421b60448201526064016105a0565b600081815260046020526040902080546001600160a01b0319166001600160a01b0384169081179091558190610d4a8261084a565b6001600160a01b03167f8c5be1e5ebec7d5bd14f71427d1e84f3dd0314c0f7b2291e5b200ac8c7c3b92560405160405180910390a45050565b6000908152600260205260409020546001600160a01b0316151590565b6007546001600160a01b031633146109425760405162461bcd60e51b815260206004820181905260248201527f4f776e61626c653a2063616c6c6572206973206e6f7420746865206f776e657260448201526064016105a0565b600080610e068361084a565b9050806001600160a01b0316846001600160a01b03161480610e4d57506001600160a01b0380821660009081526005602090815260408083209388168352929052205460ff165b80610e715750836001600160a01b0316610e6684610505565b6001600160a01b0316145b949350505050565b826001600160a01b0316610e8c8261084a565b6001600160a01b031614610eb25760405162461bcd60e51b81526004016105a090611cf9565b6001600160a01b038216610f145760405162461bcd60e51b8152602060048201526024808201527f4552433732313a207472616e7366657220746f20746865207a65726f206164646044820152637265737360e01b60648201526084016105a0565b826001600160a01b0316610f278261084a565b6001600160a01b031614610f4d5760405162461bcd60e51b81526004016105a090611cf9565b600081815260046020908152604080832080546001600160a01b03199081169091556001600160a01b0387811680865260038552838620805460001901905590871680865283862080546001019055868652600290945282852080549092168417909155905184937fddf252ad1be2c89b69c2b068fc378daa952ba7f163c4a11628f55a4df523b3ef91a4505050565b600780546001600160a01b038381166001600160a01b0319831681179093556040519116919082907f8be0079c531659141344cd1fd0a4f28419497f9722a3daafe3b4186f6b6457e090600090a35050565b61081b828260405180602001604052806000815250611357565b61105282610d83565b6110b55760405162461bcd60e51b815260206004820152602e60248201527f45524337323155524953746f726167653a2055524920736574206f66206e6f6e60448201526d32bc34b9ba32b73a103a37b5b2b760911b60648201526084016105a0565b60008281526006602052604090206110cd8282611c03565b506040518281527ff8e1a15aba9398e019f0b49df1a4fde98ee17ae345cb5f6b5e2c27f5033e8ce7906020016106e9565b816001600160a01b0316836001600160a01b03160361115f5760405162461bcd60e51b815260206004820152601960248201527f4552433732313a20617070726f766520746f2063616c6c65720000000000000060448201526064016105a0565b6001600160a01b03838116600081815260056020908152604080832094871680845294825291829020805460ff191686151590811790915591519182527f17307eab39ab6107e8899845ad3d59bd9653f200f220920489ca2b5937696c31910160405180910390a3505050565b6111d7848484610e79565b6111e38484848461138a565b610b2a5760405162461bcd60e51b81526004016105a090611d3e565b606061120a82610cc5565b6000828152600660205260408120805461122390611b2e565b80601f016020809104026020016040519081016040528092919081815260200182805461124f90611b2e565b801561129c5780601f106112715761010080835404028352916020019161129c565b820191906000526020600020905b81548152906001019060200180831161127f57829003601f168201915b5050505050905060006112ba60408051602081019091526000815290565b905080516000036112cc575092915050565b8151156112fe5780826040516020016112e6929190611d90565b60405160208183030381529060405292505050919050565b610e718461148b565b60006001600160e01b031982166380ac58cd60e01b148061133857506001600160e01b03198216635b5e139f60e01b145b8061046d57506301ffc9a760e01b6001600160e01b031983161461046d565b61136183836114ff565b61136e600084848461138a565b6106415760405162461bcd60e51b81526004016105a090611d3e565b60006001600160a01b0384163b1561148057604051630a85bd0160e11b81526001600160a01b0385169063150b7a02906113ce903390899088908890600401611dbf565b6020604051808303816000875af1925050508015611409575060408051601f3d908101601f1916820190925261140691810190611dfc565b60015b611466573d808015611437576040519150601f19603f3d011682016040523d82523d6000602084013e61143c565b606091505b50805160000361145e5760405162461bcd60e51b81526004016105a090611d3e565b805181602001fd5b6001600160e01b031916630a85bd0160e11b149050610e71565b506001949350505050565b606061149682610cc5565b60006114ad60408051602081019091526000815290565b905060008151116114cd57604051806020016040528060008152506114f8565b806114d78461166c565b6040516020016114e8929190611d90565b6040516020818303038152906040525b9392505050565b6001600160a01b0382166115555760405162461bcd60e51b815260206004820181905260248201527f4552433732313a206d696e7420746f20746865207a65726f206164647265737360448201526064016105a0565b61155e81610d83565b156115ab5760405162461bcd60e51b815260206004820152601c60248201527f4552433732313a20746f6b656e20616c7265616479206d696e7465640000000060448201526064016105a0565b6115b481610d83565b156116015760405162461bcd60e51b815260206004820152601c60248201527f4552433732313a20746f6b656e20616c7265616479206d696e7465640000000060448201526064016105a0565b6001600160a01b038216600081815260036020908152604080832080546001019055848352600290915280822080546001600160a01b0319168417905551839291907fddf252ad1be2c89b69c2b068fc378daa952ba7f163c4a11628f55a4df523b3ef908290a45050565b60606000611679836116ff565b600101905060008167ffffffffffffffff81111561169957611699611923565b6040519080825280601f01601f1916602001820160405280156116c3576020820181803683370190505b5090508181016020015b600019016f181899199a1a9b1b9c1cb0b131b232b360811b600a86061a8153600a85049450846116cd57509392505050565b60008072184f03e93ff9f4daa797ed6e38ed64bf6a1f0160401b831061173e5772184f03e93ff9f4daa797ed6e38ed64bf6a1f0160401b830492506040015b6d04ee2d6d415b85acef8100000000831061176a576d04ee2d6d415b85acef8100000000830492506020015b662386f26fc10000831061178857662386f26fc10000830492506010015b6305f5e10083106117a0576305f5e100830492506008015b61271083106117b457612710830492506004015b606483106117c6576064830492506002015b600a831061046d5760010192915050565b6001600160e01b031981168114610c9d57600080fd5b6000602082840312156117ff57600080fd5b81356114f8816117d7565b60005b8381101561182557818101518382015260200161180d565b50506000910152565b6000815180845261184681602086016020860161180a565b601f01601f19169290920160200192915050565b6020815260006114f8602083018461182e565b60006020828403121561187f57600080fd5b5035919050565b80356001600160a01b038116811461189d57600080fd5b919050565b600080604083850312156118b557600080fd5b6118be83611886565b946020939093013593505050565b6000806000606084860312156118e157600080fd5b6118ea84611886565b92506118f860208501611886565b9150604084013590509250925092565b60006020828403121561191a57600080fd5b6114f882611886565b634e487b7160e01b600052604160045260246000fd5b600067ffffffffffffffff8084111561195457611954611923565b604051601f8501601f19908116603f0116810190828211818310171561197c5761197c611923565b8160405280935085815286868601111561199557600080fd5b858560208301376000602087830101525050509392505050565b600082601f8301126119c057600080fd5b6114f883833560208501611939565b6000806000606084860312156119e457600080fd5b6119ed84611886565b9250602084013567ffffffffffffffff80821115611a0a57600080fd5b611a16878388016119af565b93506040860135915080821115611a2c57600080fd5b50611a39868287016119af565b9150509250925092565b60008060408385031215611a5657600080fd5b611a5f83611886565b915060208301358015158114611a7457600080fd5b809150509250929050565b60008060008060808587031215611a9557600080fd5b611a9e85611886565b9350611aac60208601611886565b925060408501359150606085013567ffffffffffffffff811115611acf57600080fd5b8501601f81018713611ae057600080fd5b611aef87823560208401611939565b91505092959194509250565b60008060408385031215611b0e57600080fd5b611b1783611886565b9150611b2560208401611886565b90509250929050565b600181811c90821680611b4257607f821691505b602082108103611b6257634e487b7160e01b600052602260045260246000fd5b50919050565b6020808252602d908201527f4552433732313a2063616c6c6572206973206e6f7420746f6b656e206f776e6560408201526c1c881bdc88185c1c1c9bdd9959609a1b606082015260800190565b601f82111561064157600081815260208120601f850160051c81016020861015611bdc5750805b601f850160051c820191505b81811015611bfb57828155600101611be8565b505050505050565b815167ffffffffffffffff811115611c1d57611c1d611923565b611c3181611c2b8454611b2e565b84611bb5565b602080601f831160018114611c665760008415611c4e5750858301515b600019600386901b1c1916600185901b178555611bfb565b600085815260208120601f198616915b82811015611c9557888601518255948401946001909101908401611c76565b5085821015611cb35787850151600019600388901b60f8161c191681555b5050505050600190811b01905550565b606081526000611cd6606083018661182e565b8281036020840152611ce8818661182e565b915050826040830152949350505050565b60208082526025908201527f4552433732313a207472616e736665722066726f6d20696e636f72726563742060408201526437bbb732b960d91b606082015260800190565b60208082526032908201527f4552433732313a207472616e7366657220746f206e6f6e20455243373231526560408201527131b2b4bb32b91034b6b83632b6b2b73a32b960711b606082015260800190565b60008351611da281846020880161180a565b835190830190611db681836020880161180a565b01949350505050565b6001600160a01b0385811682528416602082015260408101839052608060608201819052600090611df29083018461182e565b9695505050505050565b600060208284031215611e0e57600080fd5b81516114f8816117d756fea26469706673582212203e0ed6f7d7d661f85e900dc22d8d8da500dbb9af2beacf95e3d6fc707516642c64736f6c63430008130033",
  "linkReferences": {},
  "deployedLinkReferences": {}
}